{
  "_format": "hh-sol-artifact-1",
  "contractName": "TCOINX",
  "sourceName": "contracts/TCOINX.sol",
  "abi": [
    {
      "inputs": [],
      "stateMutability": "nonpayable",
      "type": "constructor"
    },
    {
      "anonymous": false,
      "inputs": [
        {
          "indexed": true,
          "internalType": "address",
          "name": "owner",
          "type": "address"
        },
        {
          "indexed": true,
          "internalType": "address",
          "name": "spender",
          "type": "address"
        },
        {
          "indexed": false,
          "internalType": "uint256",
          "name": "value",
          "type": "uint256"
        }
      ],
      "name": "Approval",
      "type": "event"
    },
    {
      "anonymous": false,
      "inputs": [
        {
          "indexed": true,
          "internalType": "address",
          "name": "previousOwner",
          "type": "address"
        },
        {
          "indexed": true,
          "internalType": "address",
          "name": "newOwner",
          "type": "address"
        }
      ],
      "name": "OwnershipTransferred",
      "type": "event"
    },
    {
      "anonymous": false,
      "inputs": [
        {
          "indexed": false,
          "internalType": "address",
          "name": "account",
          "type": "address"
        }
      ],
      "name": "Paused",
      "type": "event"
    },
    {
      "anonymous": false,
      "inputs": [
        {
          "indexed": true,
          "internalType": "contract IERC20",
          "name": "token",
          "type": "address"
        },
        {
          "indexed": false,
          "internalType": "address",
          "name": "to",
          "type": "address"
        },
        {
          "indexed": false,
          "internalType": "uint256",
          "name": "amount",
          "type": "uint256"
        }
      ],
      "name": "ReleasedERC20",
      "type": "event"
    },
    {
      "anonymous": false,
      "inputs": [
        {
          "indexed": true,
          "internalType": "contract IERC721",
          "name": "token",
          "type": "address"
        },
        {
          "indexed": false,
          "internalType": "address",
          "name": "to",
          "type": "address"
        },
        {
          "indexed": false,
          "internalType": "uint256",
          "name": "tokenId",
          "type": "uint256"
        }
      ],
      "name": "ReleasedERC721",
      "type": "event"
    },
    {
      "anonymous": false,
      "inputs": [
        {
          "indexed": false,
          "internalType": "address",
          "name": "to",
          "type": "address"
        },
        {
          "indexed": false,
          "internalType": "uint256",
          "name": "amount",
          "type": "uint256"
        }
      ],
      "name": "ReleasedETH",
      "type": "event"
    },
    {
      "anonymous": false,
      "inputs": [
        {
          "indexed": false,
          "internalType": "uint256",
          "name": "id",
          "type": "uint256"
        }
      ],
      "name": "Snapshot",
      "type": "event"
    },
    {
      "anonymous": false,
      "inputs": [
        {
          "indexed": true,
          "internalType": "address",
          "name": "from",
          "type": "address"
        },
        {
          "indexed": true,
          "internalType": "address",
          "name": "to",
          "type": "address"
        },
        {
          "indexed": false,
          "internalType": "uint256",
          "name": "value",
          "type": "uint256"
        }
      ],
      "name": "Transfer",
      "type": "event"
    },
    {
      "anonymous": false,
      "inputs": [
        {
          "indexed": false,
          "internalType": "address",
          "name": "account",
          "type": "address"
        }
      ],
      "name": "Unpaused",
      "type": "event"
    },
    {
      "inputs": [
        {
          "internalType": "address",
          "name": "owner",
          "type": "address"
        },
        {
          "internalType": "address",
          "name": "spender",
          "type": "address"
        }
      ],
      "name": "allowance",
      "outputs": [
        {
          "internalType": "uint256",
          "name": "",
          "type": "uint256"
        }
      ],
      "stateMutability": "view",
      "type": "function"
    },
    {
      "inputs": [
        {
          "internalType": "address",
          "name": "spender",
          "type": "address"
        },
        {
          "internalType": "uint256",
          "name": "amount",
          "type": "uint256"
        }
      ],
      "name": "approve",
      "outputs": [
        {
          "internalType": "bool",
          "name": "",
          "type": "bool"
        }
      ],
      "stateMutability": "nonpayable",
      "type": "function"
    },
    {
      "inputs": [
        {
          "internalType": "address",
          "name": "account",
          "type": "address"
        }
      ],
      "name": "balanceOf",
      "outputs": [
        {
          "internalType": "uint256",
          "name": "",
          "type": "uint256"
        }
      ],
      "stateMutability": "view",
      "type": "function"
    },
    {
      "inputs": [
        {
          "internalType": "address",
          "name": "account",
          "type": "address"
        },
        {
          "internalType": "uint256",
          "name": "snapshotId",
          "type": "uint256"
        }
      ],
      "name": "balanceOfAt",
      "outputs": [
        {
          "internalType": "uint256",
          "name": "",
          "type": "uint256"
        }
      ],
      "stateMutability": "view",
      "type": "function"
    },
    {
      "inputs": [
        {
          "internalType": "uint256",
          "name": "amount",
          "type": "uint256"
        }
      ],
      "name": "burn",
      "outputs": [],
      "stateMutability": "nonpayable",
      "type": "function"
    },
    {
      "inputs": [
        {
          "internalType": "address",
          "name": "account",
          "type": "address"
        },
        {
          "internalType": "uint256",
          "name": "amount",
          "type": "uint256"
        }
      ],
      "name": "burnFrom",
      "outputs": [],
      "stateMutability": "nonpayable",
      "type": "function"
    },
    {
      "inputs": [],
      "name": "decimals",
      "outputs": [
        {
          "internalType": "uint8",
          "name": "",
          "type": "uint8"
        }
      ],
      "stateMutability": "pure",
      "type": "function"
    },
    {
      "inputs": [
        {
          "internalType": "address",
          "name": "spender",
          "type": "address"
        },
        {
          "internalType": "uint256",
          "name": "subtractedValue",
          "type": "uint256"
        }
      ],
      "name": "decreaseAllowance",
      "outputs": [
        {
          "internalType": "bool",
          "name": "",
          "type": "bool"
        }
      ],
      "stateMutability": "nonpayable",
      "type": "function"
    },
    {
      "inputs": [
        {
          "internalType": "address",
          "name": "spender",
          "type": "address"
        },
        {
          "internalType": "uint256",
          "name": "addedValue",
          "type": "uint256"
        }
      ],
      "name": "increaseAllowance",
      "outputs": [
        {
          "internalType": "bool",
          "name": "",
          "type": "bool"
        }
      ],
      "stateMutability": "nonpayable",
      "type": "function"
    },
    {
      "inputs": [
        {
          "internalType": "address",
          "name": "to",
          "type": "address"
        },
        {
          "internalType": "uint256",
          "name": "amount",
          "type": "uint256"
        }
      ],
      "name": "mint",
      "outputs": [],
      "stateMutability": "nonpayable",
      "type": "function"
    },
    {
      "inputs": [],
      "name": "name",
      "outputs": [
        {
          "internalType": "string",
          "name": "",
          "type": "string"
        }
      ],
      "stateMutability": "view",
      "type": "function"
    },
    {
      "inputs": [],
      "name": "owner",
      "outputs": [
        {
          "internalType": "address",
          "name": "",
          "type": "address"
        }
      ],
      "stateMutability": "view",
      "type": "function"
    },
    {
      "inputs": [],
      "name": "pause",
      "outputs": [],
      "stateMutability": "nonpayable",
      "type": "function"
    },
    {
      "inputs": [],
      "name": "paused",
      "outputs": [
        {
          "internalType": "bool",
          "name": "",
          "type": "bool"
        }
      ],
      "stateMutability": "view",
      "type": "function"
    },
    {
      "inputs": [
        {
          "internalType": "contract IERC20",
          "name": "token",
          "type": "address"
        },
        {
          "internalType": "address",
          "name": "account",
          "type": "address"
        }
      ],
      "name": "releaseAllERC20",
      "outputs": [],
      "stateMutability": "nonpayable",
      "type": "function"
    },
    {
      "inputs": [
        {
          "internalType": "address payable",
          "name": "account",
          "type": "address"
        }
      ],
      "name": "releaseAllETH",
      "outputs": [],
      "stateMutability": "nonpayable",
      "type": "function"
    },
    {
      "inputs": [
        {
          "internalType": "contract IERC20",
          "name": "token",
          "type": "address"
        },
        {
          "internalType": "address",
          "name": "account",
          "type": "address"
        },
        {
          "internalType": "uint256",
          "name": "amount",
          "type": "uint256"
        }
      ],
      "name": "releaseERC20",
      "outputs": [],
      "stateMutability": "nonpayable",
      "type": "function"
    },
    {
      "inputs": [
        {
          "internalType": "contract IERC721",
          "name": "token",
          "type": "address"
        },
        {
          "internalType": "address",
          "name": "account",
          "type": "address"
        },
        {
          "internalType": "uint256",
          "name": "tokenId",
          "type": "uint256"
        }
      ],
      "name": "releaseERC721",
      "outputs": [],
      "stateMutability": "nonpayable",
      "type": "function"
    },
    {
      "inputs": [
        {
          "internalType": "address payable",
          "name": "account",
          "type": "address"
        },
        {
          "internalType": "uint256",
          "name": "amount",
          "type": "uint256"
        }
      ],
      "name": "releaseETH",
      "outputs": [],
      "stateMutability": "nonpayable",
      "type": "function"
    },
    {
      "inputs": [],
      "name": "renounceOwnership",
      "outputs": [],
      "stateMutability": "nonpayable",
      "type": "function"
    },
    {
      "inputs": [],
      "name": "snapshot",
      "outputs": [],
      "stateMutability": "nonpayable",
      "type": "function"
    },
    {
      "inputs": [],
      "name": "symbol",
      "outputs": [
        {
          "internalType": "string",
          "name": "",
          "type": "string"
        }
      ],
      "stateMutability": "view",
      "type": "function"
    },
    {
      "inputs": [],
      "name": "totalSupply",
      "outputs": [
        {
          "internalType": "uint256",
          "name": "",
          "type": "uint256"
        }
      ],
      "stateMutability": "view",
      "type": "function"
    },
    {
      "inputs": [
        {
          "internalType": "uint256",
          "name": "snapshotId",
          "type": "uint256"
        }
      ],
      "name": "totalSupplyAt",
      "outputs": [
        {
          "internalType": "uint256",
          "name": "",
          "type": "uint256"
        }
      ],
      "stateMutability": "view",
      "type": "function"
    },
    {
      "inputs": [
        {
          "internalType": "address",
          "name": "to",
          "type": "address"
        },
        {
          "internalType": "uint256",
          "name": "amount",
          "type": "uint256"
        }
      ],
      "name": "transfer",
      "outputs": [
        {
          "internalType": "bool",
          "name": "",
          "type": "bool"
        }
      ],
      "stateMutability": "nonpayable",
      "type": "function"
    },
    {
      "inputs": [
        {
          "internalType": "address",
          "name": "from",
          "type": "address"
        },
        {
          "internalType": "address",
          "name": "to",
          "type": "address"
        },
        {
          "internalType": "uint256",
          "name": "amount",
          "type": "uint256"
        }
      ],
      "name": "transferFrom",
      "outputs": [
        {
          "internalType": "bool",
          "name": "",
          "type": "bool"
        }
      ],
      "stateMutability": "nonpayable",
      "type": "function"
    },
    {
      "inputs": [
        {
          "internalType": "address",
          "name": "newOwner",
          "type": "address"
        }
      ],
      "name": "transferOwnership",
      "outputs": [],
      "stateMutability": "nonpayable",
      "type": "function"
    },
    {
      "inputs": [],
      "name": "unpause",
      "outputs": [],
      "stateMutability": "nonpayable",
      "type": "function"
    },
    {
      "stateMutability": "payable",
      "type": "receive"
    }
  ],
  "bytecode": "0x60806040523480156200001157600080fd5b506040518060400160405280600681526020017f54434f494e5800000000000000000000000000000000000000000000000000008152506040518060400160405280600381526020017f544358000000000000000000000000000000000000000000000000000000000081525081600390816200008f91906200096f565b508060049081620000a191906200096f565b505050620000c4620000b86200012660201b60201c565b6200012e60201b60201c565b6000600960146101000a81548160ff0219169083151502179055506200012033620000f4620001f460201b60201c565b600a62000102919062000be6565b6402540be40062000114919062000c37565b620001fd60201b60201c565b62000e4a565b600033905090565b6000600960009054906101000a900473ffffffffffffffffffffffffffffffffffffffff16905081600960006101000a81548173ffffffffffffffffffffffffffffffffffffffff021916908373ffffffffffffffffffffffffffffffffffffffff1602179055508173ffffffffffffffffffffffffffffffffffffffff168173ffffffffffffffffffffffffffffffffffffffff167f8be0079c531659141344cd1fd0a4f28419497f9722a3daafe3b4186f6b6457e060405160405180910390a35050565b60006006905090565b600073ffffffffffffffffffffffffffffffffffffffff168273ffffffffffffffffffffffffffffffffffffffff16036200026f576040517f08c379a0000000000000000000000000000000000000000000000000000000008152600401620002669062000ce3565b60405180910390fd5b62000283600083836200037560201b60201c565b806002600082825462000297919062000d05565b92505081905550806000808473ffffffffffffffffffffffffffffffffffffffff1673ffffffffffffffffffffffffffffffffffffffff1681526020019081526020016000206000828254620002ee919062000d05565b925050819055508173ffffffffffffffffffffffffffffffffffffffff16600073ffffffffffffffffffffffffffffffffffffffff167fddf252ad1be2c89b69c2b068fc378daa952ba7f163c4a11628f55a4df523b3ef8360405162000355919062000d51565b60405180910390a36200037160008383620003a260201b60201c565b5050565b62000385620003a760201b60201c565b6200039d838383620003fc60201b62000c4e1760201c565b505050565b505050565b620003b7620004f560201b60201c565b15620003fa576040517f08c379a0000000000000000000000000000000000000000000000000000000008152600401620003f19062000dbe565b60405180910390fd5b565b620004148383836200050c60201b62000d061760201c565b600073ffffffffffffffffffffffffffffffffffffffff168373ffffffffffffffffffffffffffffffffffffffff160362000470576200045a826200051160201b60201c565b6200046a6200057460201b60201c565b620004f0565b600073ffffffffffffffffffffffffffffffffffffffff168273ffffffffffffffffffffffffffffffffffffffff1603620004cc57620004b6836200051160201b60201c565b620004c66200057460201b60201c565b620004ef565b620004dd836200051160201b60201c565b620004ee826200051160201b60201c565b5b5b505050565b6000600960149054906101000a900460ff16905090565b505050565b62000571600560008373ffffffffffffffffffffffffffffffffffffffff1673ffffffffffffffffffffffffffffffffffffffff16815260200190815260200160002062000565836200059860201b60201c565b620005e060201b60201c565b50565b6200059660066200058a6200066c60201b60201c565b620005e060201b60201c565b565b60008060008373ffffffffffffffffffffffffffffffffffffffff1673ffffffffffffffffffffffffffffffffffffffff168152602001908152602001600020549050919050565b6000620005f26200067660201b60201c565b90508062000609846000016200069460201b60201c565b1015620006675782600001819080600181540180825580915050600190039060005260206000200160009091909190915055826001018290806001815401808255809150506001900390600052602060002001600090919091909150555b505050565b6000600254905090565b60006200068f6008620006e760201b62000d0b1760201c565b905090565b600080828054905003620006ac5760009050620006e2565b8160018380549050620006c0919062000de0565b81548110620006d457620006d362000e1b565b5b906000526020600020015490505b919050565b600081600001549050919050565b600081519050919050565b7f4e487b7100000000000000000000000000000000000000000000000000000000600052604160045260246000fd5b7f4e487b7100000000000000000000000000000000000000000000000000000000600052602260045260246000fd5b600060028204905060018216806200077757607f821691505b6020821081036200078d576200078c6200072f565b5b50919050565b60008190508160005260206000209050919050565b60006020601f8301049050919050565b600082821b905092915050565b600060088302620007f77fffffffffffffffffffffffffffffffffffffffffffffffffffffffffffffffff82620007b8565b620008038683620007b8565b95508019841693508086168417925050509392505050565b6000819050919050565b6000819050919050565b6000620008506200084a62000844846200081b565b62000825565b6200081b565b9050919050565b6000819050919050565b6200086c836200082f565b620008846200087b8262000857565b848454620007c5565b825550505050565b600090565b6200089b6200088c565b620008a881848462000861565b505050565b5b81811015620008d057620008c460008262000891565b600181019050620008ae565b5050565b601f8211156200091f57620008e98162000793565b620008f484620007a8565b8101602085101562000904578190505b6200091c6200091385620007a8565b830182620008ad565b50505b505050565b600082821c905092915050565b6000620009446000198460080262000924565b1980831691505092915050565b60006200095f838362000931565b9150826002028217905092915050565b6200097a82620006f5565b67ffffffffffffffff81111562000996576200099562000700565b5b620009a282546200075e565b620009af828285620008d4565b600060209050601f831160018114620009e75760008415620009d2578287015190505b620009de858262000951565b86555062000a4e565b601f198416620009f78662000793565b60005b8281101562000a2157848901518255600182019150602085019450602081019050620009fa565b8683101562000a41578489015162000a3d601f89168262000931565b8355505b6001600288020188555050505b505050505050565b7f4e487b7100000000000000000000000000000000000000000000000000000000600052601160045260246000fd5b60008160011c9050919050565b6000808291508390505b600185111562000ae45780860481111562000abc5762000abb62000a56565b5b600185161562000acc5780820291505b808102905062000adc8562000a85565b945062000a9c565b94509492505050565b60008262000aff576001905062000bd2565b8162000b0f576000905062000bd2565b816001811462000b28576002811462000b335762000b69565b600191505062000bd2565b60ff84111562000b485762000b4762000a56565b5b8360020a91508482111562000b625762000b6162000a56565b5b5062000bd2565b5060208310610133831016604e8410600b841016171562000ba35782820a90508381111562000b9d5762000b9c62000a56565b5b62000bd2565b62000bb2848484600162000a92565b9250905081840481111562000bcc5762000bcb62000a56565b5b81810290505b9392505050565b600060ff82169050919050565b600062000bf3826200081b565b915062000c008362000bd9565b925062000c2f7fffffffffffffffffffffffffffffffffffffffffffffffffffffffffffffffff848462000aed565b905092915050565b600062000c44826200081b565b915062000c51836200081b565b925082820262000c61816200081b565b9150828204841483151762000c7b5762000c7a62000a56565b5b5092915050565b600082825260208201905092915050565b7f45524332303a206d696e7420746f20746865207a65726f206164647265737300600082015250565b600062000ccb601f8362000c82565b915062000cd88262000c93565b602082019050919050565b6000602082019050818103600083015262000cfe8162000cbc565b9050919050565b600062000d12826200081b565b915062000d1f836200081b565b925082820190508082111562000d3a5762000d3962000a56565b5b92915050565b62000d4b816200081b565b82525050565b600060208201905062000d68600083018462000d40565b92915050565b7f5061757361626c653a2070617573656400000000000000000000000000000000600082015250565b600062000da660108362000c82565b915062000db38262000d6e565b602082019050919050565b6000602082019050818103600083015262000dd98162000d97565b9050919050565b600062000ded826200081b565b915062000dfa836200081b565b925082820390508181111562000e155762000e1462000a56565b5b92915050565b7f4e487b7100000000000000000000000000000000000000000000000000000000600052603260045260246000fd5b613c538062000e5a6000396000f3fe6080604052600436106101bb5760003560e01c806379cc6790116100ec578063a9059cbb1161008a578063e8e71f0c11610064578063e8e71f0c14610617578063f2fde38b14610640578063f3b4604c14610669578063f9a5155614610692576101c2565b8063a9059cbb14610574578063d8265846146105b1578063dd62ed3e146105da576101c2565b806395d89b41116100c657806395d89b41146104b85780639711715a146104e3578063981b24d0146104fa578063a457c2d714610537576101c2565b806379cc67901461044d5780638456cb59146104765780638da5cb5b1461048d576101c2565b806340c10f19116101595780635c975abb116101335780635c975abb146103a55780636cd533d8146103d057806370a08231146103f9578063715018a614610436576101c2565b806340c10f191461031657806342966c681461033f5780634ee2cd7e14610368576101c2565b806323b872dd1161019557806323b872dd1461025a578063313ce5671461029757806339509351146102c25780633f4ba83a146102ff576101c2565b806306fdde03146101c7578063095ea7b3146101f257806318160ddd1461022f576101c2565b366101c257005b600080fd5b3480156101d357600080fd5b506101dc6106bb565b6040516101e99190612552565b60405180910390f35b3480156101fe57600080fd5b506102196004803603810190610214919061260d565b61074d565b6040516102269190612668565b60405180910390f35b34801561023b57600080fd5b50610244610770565b6040516102519190612692565b60405180910390f35b34801561026657600080fd5b50610281600480360381019061027c91906126ad565b61077a565b60405161028e9190612668565b60405180910390f35b3480156102a357600080fd5b506102ac6107a9565b6040516102b9919061271c565b60405180910390f35b3480156102ce57600080fd5b506102e960048036038101906102e4919061260d565b6107b2565b6040516102f69190612668565b60405180910390f35b34801561030b57600080fd5b506103146107e9565b005b34801561032257600080fd5b5061033d6004803603810190610338919061260d565b6107fb565b005b34801561034b57600080fd5b5061036660048036038101906103619190612737565b610811565b005b34801561037457600080fd5b5061038f600480360381019061038a919061260d565b610825565b60405161039c9190612692565b60405180910390f35b3480156103b157600080fd5b506103ba610895565b6040516103c79190612668565b60405180910390f35b3480156103dc57600080fd5b506103f760048036038101906103f291906127a2565b6108ac565b005b34801561040557600080fd5b50610420600480360381019061041b91906127f5565b6108c4565b60405161042d9190612692565b60405180910390f35b34801561044257600080fd5b5061044b61090c565b005b34801561045957600080fd5b50610474600480360381019061046f919061260d565b610920565b005b34801561048257600080fd5b5061048b610940565b005b34801561049957600080fd5b506104a2610952565b6040516104af9190612831565b60405180910390f35b3480156104c457600080fd5b506104cd61097c565b6040516104da9190612552565b60405180910390f35b3480156104ef57600080fd5b506104f8610a0e565b005b34801561050657600080fd5b50610521600480360381019061051c9190612737565b610a21565b60405161052e9190612692565b60405180910390f35b34801561054357600080fd5b5061055e6004803603810190610559919061260d565b610a52565b60405161056b9190612668565b60405180910390f35b34801561058057600080fd5b5061059b6004803603810190610596919061260d565b610ac9565b6040516105a89190612668565b60405180910390f35b3480156105bd57600080fd5b506105d860048036038101906105d3919061288a565b610aec565b005b3480156105e657600080fd5b5061060160048036038101906105fc91906128dd565b610b04565b60405161060e9190612692565b60405180910390f35b34801561062357600080fd5b5061063e6004803603810190610639919061295b565b610b8b565b005b34801561064c57600080fd5b50610667600480360381019061066291906127f5565b610ba1565b005b34801561067557600080fd5b50610690600480360381019061068b919061299b565b610c24565b005b34801561069e57600080fd5b506106b960048036038101906106b491906129c8565b610c38565b005b6060600380546106ca90612a37565b80601f01602080910402602001604051908101604052809291908181526020018280546106f690612a37565b80156107435780601f1061071857610100808354040283529160200191610743565b820191906000526020600020905b81548152906001019060200180831161072657829003601f168201915b5050505050905090565b600080610758610d19565b9050610765818585610d21565b600191505092915050565b6000600254905090565b600080610785610d19565b9050610792858285610eea565b61079d858585610f76565b60019150509392505050565b60006006905090565b6000806107bd610d19565b90506107de8185856107cf8589610b04565b6107d99190612a97565b610d21565b600191505092915050565b6107f16111f5565b6107f9611273565b565b6108036111f5565b61080d82826112d6565b5050565b61082261081c610d19565b82611435565b50565b600080600061087284600560008873ffffffffffffffffffffffffffffffffffffffff1673ffffffffffffffffffffffffffffffffffffffff16815260200190815260200160002061160b565b915091508161088957610884856108c4565b61088b565b805b9250505092915050565b6000600960149054906101000a900460ff16905090565b6108b46111f5565b6108bf838383611700565b505050565b60008060008373ffffffffffffffffffffffffffffffffffffffff1673ffffffffffffffffffffffffffffffffffffffff168152602001908152602001600020549050919050565b6109146111f5565b61091e6000611865565b565b6109328261092c610d19565b83610eea565b61093c8282611435565b5050565b6109486111f5565b61095061192b565b565b6000600960009054906101000a900473ffffffffffffffffffffffffffffffffffffffff16905090565b60606004805461098b90612a37565b80601f01602080910402602001604051908101604052809291908181526020018280546109b790612a37565b8015610a045780601f106109d957610100808354040283529160200191610a04565b820191906000526020600020905b8154815290600101906020018083116109e757829003601f168201915b5050505050905090565b610a166111f5565b610a1e61198e565b50565b6000806000610a3184600661160b565b9150915081610a4757610a42610770565b610a49565b805b92505050919050565b600080610a5d610d19565b90506000610a6b8286610b04565b905083811015610ab0576040517f08c379a0000000000000000000000000000000000000000000000000000000008152600401610aa790612b3d565b60405180910390fd5b610abd8286868403610d21565b60019250505092915050565b600080610ad4610d19565b9050610ae1818585610f76565b600191505092915050565b610af46111f5565b610aff8383836119e4565b505050565b6000600160008473ffffffffffffffffffffffffffffffffffffffff1673ffffffffffffffffffffffffffffffffffffffff16815260200190815260200160002060008373ffffffffffffffffffffffffffffffffffffffff1673ffffffffffffffffffffffffffffffffffffffff16815260200190815260200160002054905092915050565b610b936111f5565b610b9d8282611ba9565b5050565b610ba96111f5565b600073ffffffffffffffffffffffffffffffffffffffff168173ffffffffffffffffffffffffffffffffffffffff1603610c18576040517f08c379a0000000000000000000000000000000000000000000000000000000008152600401610c0f90612bcf565b60405180910390fd5b610c2181611865565b50565b610c2c6111f5565b610c3581611c7c565b50565b610c406111f5565b610c4a8282611c8f565b5050565b610c59838383610d06565b600073ffffffffffffffffffffffffffffffffffffffff168373ffffffffffffffffffffffffffffffffffffffff1603610ca357610c9682611d1d565b610c9e611d70565b610d01565b600073ffffffffffffffffffffffffffffffffffffffff168273ffffffffffffffffffffffffffffffffffffffff1603610ced57610ce083611d1d565b610ce8611d70565b610d00565b610cf683611d1d565b610cff82611d1d565b5b5b505050565b505050565b600081600001549050919050565b600033905090565b600073ffffffffffffffffffffffffffffffffffffffff168373ffffffffffffffffffffffffffffffffffffffff1603610d90576040517f08c379a0000000000000000000000000000000000000000000000000000000008152600401610d8790612c61565b60405180910390fd5b600073ffffffffffffffffffffffffffffffffffffffff168273ffffffffffffffffffffffffffffffffffffffff1603610dff576040517f08c379a0000000000000000000000000000000000000000000000000000000008152600401610df690612cf3565b60405180910390fd5b80600160008573ffffffffffffffffffffffffffffffffffffffff1673ffffffffffffffffffffffffffffffffffffffff16815260200190815260200160002060008473ffffffffffffffffffffffffffffffffffffffff1673ffffffffffffffffffffffffffffffffffffffff168152602001908152602001600020819055508173ffffffffffffffffffffffffffffffffffffffff168373ffffffffffffffffffffffffffffffffffffffff167f8c5be1e5ebec7d5bd14f71427d1e84f3dd0314c0f7b2291e5b200ac8c7c3b92583604051610edd9190612692565b60405180910390a3505050565b6000610ef68484610b04565b90507fffffffffffffffffffffffffffffffffffffffffffffffffffffffffffffffff8114610f705781811015610f62576040517f08c379a0000000000000000000000000000000000000000000000000000000008152600401610f5990612d5f565b60405180910390fd5b610f6f8484848403610d21565b5b50505050565b600073ffffffffffffffffffffffffffffffffffffffff168373ffffffffffffffffffffffffffffffffffffffff1603610fe5576040517f08c379a0000000000000000000000000000000000000000000000000000000008152600401610fdc90612df1565b60405180910390fd5b600073ffffffffffffffffffffffffffffffffffffffff168273ffffffffffffffffffffffffffffffffffffffff1603611054576040517f08c379a000000000000000000000000000000000000000000000000000000000815260040161104b90612e83565b60405180910390fd5b61105f838383611d84565b60008060008573ffffffffffffffffffffffffffffffffffffffff1673ffffffffffffffffffffffffffffffffffffffff168152602001908152602001600020549050818110156110e5576040517f08c379a00000000000000000000000000000000000000000000000000000000081526004016110dc90612f15565b60405180910390fd5b8181036000808673ffffffffffffffffffffffffffffffffffffffff1673ffffffffffffffffffffffffffffffffffffffff16815260200190815260200160002081905550816000808573ffffffffffffffffffffffffffffffffffffffff1673ffffffffffffffffffffffffffffffffffffffff16815260200190815260200160002060008282546111789190612a97565b925050819055508273ffffffffffffffffffffffffffffffffffffffff168473ffffffffffffffffffffffffffffffffffffffff167fddf252ad1be2c89b69c2b068fc378daa952ba7f163c4a11628f55a4df523b3ef846040516111dc9190612692565b60405180910390a36111ef848484611d9c565b50505050565b6111fd610d19565b73ffffffffffffffffffffffffffffffffffffffff1661121b610952565b73ffffffffffffffffffffffffffffffffffffffff1614611271576040517f08c379a000000000000000000000000000000000000000000000000000000000815260040161126890612f81565b60405180910390fd5b565b61127b611da1565b6000600960146101000a81548160ff0219169083151502179055507f5db9ee0a495bf2e6ff9c91a7834c1ba4fdd244a5e8aa4e537bd38aeae4b073aa6112bf610d19565b6040516112cc9190612831565b60405180910390a1565b600073ffffffffffffffffffffffffffffffffffffffff168273ffffffffffffffffffffffffffffffffffffffff1603611345576040517f08c379a000000000000000000000000000000000000000000000000000000000815260040161133c90612fed565b60405180910390fd5b61135160008383611d84565b80600260008282546113639190612a97565b92505081905550806000808473ffffffffffffffffffffffffffffffffffffffff1673ffffffffffffffffffffffffffffffffffffffff16815260200190815260200160002060008282546113b89190612a97565b925050819055508173ffffffffffffffffffffffffffffffffffffffff16600073ffffffffffffffffffffffffffffffffffffffff167fddf252ad1be2c89b69c2b068fc378daa952ba7f163c4a11628f55a4df523b3ef8360405161141d9190612692565b60405180910390a361143160008383611d9c565b5050565b600073ffffffffffffffffffffffffffffffffffffffff168273ffffffffffffffffffffffffffffffffffffffff16036114a4576040517f08c379a000000000000000000000000000000000000000000000000000000000815260040161149b9061307f565b60405180910390fd5b6114b082600083611d84565b60008060008473ffffffffffffffffffffffffffffffffffffffff1673ffffffffffffffffffffffffffffffffffffffff16815260200190815260200160002054905081811015611536576040517f08c379a000000000000000000000000000000000000000000000000000000000815260040161152d90613111565b60405180910390fd5b8181036000808573ffffffffffffffffffffffffffffffffffffffff1673ffffffffffffffffffffffffffffffffffffffff16815260200190815260200160002081905550816002600082825461158d9190613131565b92505081905550600073ffffffffffffffffffffffffffffffffffffffff168373ffffffffffffffffffffffffffffffffffffffff167fddf252ad1be2c89b69c2b068fc378daa952ba7f163c4a11628f55a4df523b3ef846040516115f29190612692565b60405180910390a361160683600084611d9c565b505050565b60008060008411611651576040517f08c379a0000000000000000000000000000000000000000000000000000000008152600401611648906131b1565b60405180910390fd5b611659611dea565b84111561169b576040517f08c379a00000000000000000000000000000000000000000000000000000000081526004016116929061321d565b60405180910390fd5b60006116b38585600001611dfb90919063ffffffff16565b9050836000018054905081036116d05760008092509250506116f9565b60018460010182815481106116e8576116e761323d565b5b906000526020600020015492509250505b9250929050565b60008373ffffffffffffffffffffffffffffffffffffffff166370a08231306040518263ffffffff1660e01b815260040161173b9190612831565b602060405180830381865afa158015611758573d6000803e3d6000fd5b505050506040513d601f19601f8201168201806040525081019061177c9190613281565b9050600081036117c1576040517f08c379a00000000000000000000000000000000000000000000000000000000081526004016117b890613320565b60405180910390fd5b81811015611804576040517f08c379a00000000000000000000000000000000000000000000000000000000081526004016117fb906133b2565b60405180910390fd5b61180f848484611ed4565b8373ffffffffffffffffffffffffffffffffffffffff167f9b387ce8bb501791bb431ae90f86364d0a652da267fb6f5f7990330590474bf984846040516118579291906133d2565b60405180910390a250505050565b6000600960009054906101000a900473ffffffffffffffffffffffffffffffffffffffff16905081600960006101000a81548173ffffffffffffffffffffffffffffffffffffffff021916908373ffffffffffffffffffffffffffffffffffffffff1602179055508173ffffffffffffffffffffffffffffffffffffffff168173ffffffffffffffffffffffffffffffffffffffff167f8be0079c531659141344cd1fd0a4f28419497f9722a3daafe3b4186f6b6457e060405160405180910390a35050565b611933611f5a565b6001600960146101000a81548160ff0219169083151502179055507f62e78cea01bee320cd4e420270b5ea74000d11b0c9f74754ebdbfc544b05a258611977610d19565b6040516119849190612831565b60405180910390a1565b600061199a6008611fa4565b60006119a4611dea565b90507f8030e83b04d87bef53480e26263266d6ca66863aa8506aca6f2559d18aa1cb67816040516119d59190612692565b60405180910390a18091505090565b60008373ffffffffffffffffffffffffffffffffffffffff16636352211e836040518263ffffffff1660e01b8152600401611a1f9190612692565b602060405180830381865afa158015611a3c573d6000803e3d6000fd5b505050506040513d601f19601f82011682018060405250810190611a609190613410565b90503073ffffffffffffffffffffffffffffffffffffffff168173ffffffffffffffffffffffffffffffffffffffff1614611ad0576040517f08c379a0000000000000000000000000000000000000000000000000000000008152600401611ac7906134af565b60405180910390fd5b611b53846323b872dd60e01b308686604051602401611af1939291906134cf565b604051602081830303815290604052907bffffffffffffffffffffffffffffffffffffffffffffffffffffffff19166020820180517bffffffffffffffffffffffffffffffffffffffffffffffffffffffff8381831617835250505050611fba565b8373ffffffffffffffffffffffffffffffffffffffff167fd9bc2a81df2d955f059e8d82947f54b56ec95d97247b11dfc6baf27a4639dc6e8484604051611b9b9291906133d2565b60405180910390a250505050565b600047905060008103611bf1576040517f08c379a0000000000000000000000000000000000000000000000000000000008152600401611be890613578565b60405180910390fd5b81811015611c34576040517f08c379a0000000000000000000000000000000000000000000000000000000008152600401611c2b9061360a565b60405180910390fd5b611c3e8383612064565b7fd16d88c9aab426dbbc3724268d2bc42d44e35ab4274f7284beb61fa8dfbc432a8383604051611c6f929190613689565b60405180910390a1505050565b6000479050611c8b8282611ba9565b5050565b60008273ffffffffffffffffffffffffffffffffffffffff166370a08231306040518263ffffffff1660e01b8152600401611cca9190612831565b602060405180830381865afa158015611ce7573d6000803e3d6000fd5b505050506040513d601f19601f82011682018060405250810190611d0b9190613281565b9050611d18838383611700565b505050565b611d6d600560008373ffffffffffffffffffffffffffffffffffffffff1673ffffffffffffffffffffffffffffffffffffffff168152602001908152602001600020611d68836108c4565b612158565b50565b611d826006611d7d610770565b612158565b565b611d8c611f5a565b611d97838383610c4e565b505050565b505050565b611da9610895565b611de8576040517f08c379a0000000000000000000000000000000000000000000000000000000008152600401611ddf906136fe565b60405180910390fd5b565b6000611df66008610d0b565b905090565b600080838054905003611e115760009050611ece565b600080848054905090505b80821015611e75576000611e3083836121d3565b905084868281548110611e4657611e4561323d565b5b90600052602060002001541115611e5f57809150611e6f565b600181611e6c9190612a97565b92505b50611e1c565b600082118015611ead57508385600184611e8f9190613131565b81548110611ea057611e9f61323d565b5b9060005260206000200154145b15611ec857600182611ebf9190613131565b92505050611ece565b81925050505b92915050565b611f558363a9059cbb60e01b8484604051602401611ef39291906133d2565b604051602081830303815290604052907bffffffffffffffffffffffffffffffffffffffffffffffffffffffff19166020820180517bffffffffffffffffffffffffffffffffffffffffffffffffffffffff83818316178352505050506121f9565b505050565b611f62610895565b15611fa2576040517f08c379a0000000000000000000000000000000000000000000000000000000008152600401611f999061376a565b60405180910390fd5b565b6001816000016000828254019250508190555050565b6000611fff82604051806060016040528060218152602001613bfd602191398573ffffffffffffffffffffffffffffffffffffffff166122c09092919063ffffffff16565b905060008151111561205f578080602001905181019061201f91906137b6565b61205e576040517f08c379a000000000000000000000000000000000000000000000000000000000815260040161205590613855565b60405180910390fd5b5b505050565b804710156120a7576040517f08c379a000000000000000000000000000000000000000000000000000000000815260040161209e906138c1565b60405180910390fd5b60008273ffffffffffffffffffffffffffffffffffffffff16826040516120cd90613912565b60006040518083038185875af1925050503d806000811461210a576040519150601f19603f3d011682016040523d82523d6000602084013e61210f565b606091505b5050905080612153576040517f08c379a000000000000000000000000000000000000000000000000000000000815260040161214a90613999565b60405180910390fd5b505050565b6000612162611dea565b905080612171846000016122d8565b10156121ce5782600001819080600181540180825580915050600190039060005260206000200160009091909190915055826001018290806001815401808255809150506001900390600052602060002001600090919091909150555b505050565b600060028284186121e491906139e8565b8284166121f19190612a97565b905092915050565b600061225b826040518060400160405280602081526020017f5361666545524332303a206c6f772d6c6576656c2063616c6c206661696c65648152508573ffffffffffffffffffffffffffffffffffffffff166122c09092919063ffffffff16565b90506000815111156122bb578080602001905181019061227b91906137b6565b6122ba576040517f08c379a00000000000000000000000000000000000000000000000000000000081526004016122b190613a8b565b60405180910390fd5b5b505050565b60606122cf8484600085612324565b90509392505050565b6000808280549050036122ee576000905061231f565b81600183805490506123009190613131565b815481106123115761231061323d565b5b906000526020600020015490505b919050565b606082471015612369576040517f08c379a000000000000000000000000000000000000000000000000000000000815260040161236090613b1d565b60405180910390fd5b61237285612438565b6123b1576040517f08c379a00000000000000000000000000000000000000000000000000000000081526004016123a890613b89565b60405180910390fd5b6000808673ffffffffffffffffffffffffffffffffffffffff1685876040516123da9190613be5565b60006040518083038185875af1925050503d8060008114612417576040519150601f19603f3d011682016040523d82523d6000602084013e61241c565b606091505b509150915061242c82828661245b565b92505050949350505050565b6000808273ffffffffffffffffffffffffffffffffffffffff163b119050919050565b6060831561246b578290506124bb565b60008351111561247e5782518084602001fd5b816040517f08c379a00000000000000000000000000000000000000000000000000000000081526004016124b29190612552565b60405180910390fd5b9392505050565b600081519050919050565b600082825260208201905092915050565b60005b838110156124fc5780820151818401526020810190506124e1565b60008484015250505050565b6000601f19601f8301169050919050565b6000612524826124c2565b61252e81856124cd565b935061253e8185602086016124de565b61254781612508565b840191505092915050565b6000602082019050818103600083015261256c8184612519565b905092915050565b600080fd5b600073ffffffffffffffffffffffffffffffffffffffff82169050919050565b60006125a482612579565b9050919050565b6125b481612599565b81146125bf57600080fd5b50565b6000813590506125d1816125ab565b92915050565b6000819050919050565b6125ea816125d7565b81146125f557600080fd5b50565b600081359050612607816125e1565b92915050565b6000806040838503121561262457612623612574565b5b6000612632858286016125c2565b9250506020612643858286016125f8565b9150509250929050565b60008115159050919050565b6126628161264d565b82525050565b600060208201905061267d6000830184612659565b92915050565b61268c816125d7565b82525050565b60006020820190506126a76000830184612683565b92915050565b6000806000606084860312156126c6576126c5612574565b5b60006126d4868287016125c2565b93505060206126e5868287016125c2565b92505060406126f6868287016125f8565b9150509250925092565b600060ff82169050919050565b61271681612700565b82525050565b6000602082019050612731600083018461270d565b92915050565b60006020828403121561274d5761274c612574565b5b600061275b848285016125f8565b91505092915050565b600061276f82612599565b9050919050565b61277f81612764565b811461278a57600080fd5b50565b60008135905061279c81612776565b92915050565b6000806000606084860312156127bb576127ba612574565b5b60006127c98682870161278d565b93505060206127da868287016125c2565b92505060406127eb868287016125f8565b9150509250925092565b60006020828403121561280b5761280a612574565b5b6000612819848285016125c2565b91505092915050565b61282b81612599565b82525050565b60006020820190506128466000830184612822565b92915050565b600061285782612599565b9050919050565b6128678161284c565b811461287257600080fd5b50565b6000813590506128848161285e565b92915050565b6000806000606084860312156128a3576128a2612574565b5b60006128b186828701612875565b93505060206128c2868287016125c2565b92505060406128d3868287016125f8565b9150509250925092565b600080604083850312156128f4576128f3612574565b5b6000612902858286016125c2565b9250506020612913858286016125c2565b9150509250929050565b600061292882612579565b9050919050565b6129388161291d565b811461294357600080fd5b50565b6000813590506129558161292f565b92915050565b6000806040838503121561297257612971612574565b5b600061298085828601612946565b9250506020612991858286016125f8565b9150509250929050565b6000602082840312156129b1576129b0612574565b5b60006129bf84828501612946565b91505092915050565b600080604083850312156129df576129de612574565b5b60006129ed8582860161278d565b92505060206129fe858286016125c2565b9150509250929050565b7f4e487b7100000000000000000000000000000000000000000000000000000000600052602260045260246000fd5b60006002820490506001821680612a4f57607f821691505b602082108103612a6257612a61612a08565b5b50919050565b7f4e487b7100000000000000000000000000000000000000000000000000000000600052601160045260246000fd5b6000612aa2826125d7565b9150612aad836125d7565b9250828201905080821115612ac557612ac4612a68565b5b92915050565b7f45524332303a2064656372656173656420616c6c6f77616e63652062656c6f7760008201527f207a65726f000000000000000000000000000000000000000000000000000000602082015250565b6000612b276025836124cd565b9150612b3282612acb565b604082019050919050565b60006020820190508181036000830152612b5681612b1a565b9050919050565b7f4f776e61626c653a206e6577206f776e657220697320746865207a65726f206160008201527f6464726573730000000000000000000000000000000000000000000000000000602082015250565b6000612bb96026836124cd565b9150612bc482612b5d565b604082019050919050565b60006020820190508181036000830152612be881612bac565b9050919050565b7f45524332303a20617070726f76652066726f6d20746865207a65726f2061646460008201527f7265737300000000000000000000000000000000000000000000000000000000602082015250565b6000612c4b6024836124cd565b9150612c5682612bef565b604082019050919050565b60006020820190508181036000830152612c7a81612c3e565b9050919050565b7f45524332303a20617070726f766520746f20746865207a65726f20616464726560008201527f7373000000000000000000000000000000000000000000000000000000000000602082015250565b6000612cdd6022836124cd565b9150612ce882612c81565b604082019050919050565b60006020820190508181036000830152612d0c81612cd0565b9050919050565b7f45524332303a20696e73756666696369656e7420616c6c6f77616e6365000000600082015250565b6000612d49601d836124cd565b9150612d5482612d13565b602082019050919050565b60006020820190508181036000830152612d7881612d3c565b9050919050565b7f45524332303a207472616e736665722066726f6d20746865207a65726f20616460008201527f6472657373000000000000000000000000000000000000000000000000000000602082015250565b6000612ddb6025836124cd565b9150612de682612d7f565b604082019050919050565b60006020820190508181036000830152612e0a81612dce565b9050919050565b7f45524332303a207472616e7366657220746f20746865207a65726f206164647260008201527f6573730000000000000000000000000000000000000000000000000000000000602082015250565b6000612e6d6023836124cd565b9150612e7882612e11565b604082019050919050565b60006020820190508181036000830152612e9c81612e60565b9050919050565b7f45524332303a207472616e7366657220616d6f756e742065786365656473206260008201527f616c616e63650000000000000000000000000000000000000000000000000000602082015250565b6000612eff6026836124cd565b9150612f0a82612ea3565b604082019050919050565b60006020820190508181036000830152612f2e81612ef2565b9050919050565b7f4f776e61626c653a2063616c6c6572206973206e6f7420746865206f776e6572600082015250565b6000612f6b6020836124cd565b9150612f7682612f35565b602082019050919050565b60006020820190508181036000830152612f9a81612f5e565b9050919050565b7f45524332303a206d696e7420746f20746865207a65726f206164647265737300600082015250565b6000612fd7601f836124cd565b9150612fe282612fa1565b602082019050919050565b6000602082019050818103600083015261300681612fca565b9050919050565b7f45524332303a206275726e2066726f6d20746865207a65726f2061646472657360008201527f7300000000000000000000000000000000000000000000000000000000000000602082015250565b60006130696021836124cd565b91506130748261300d565b604082019050919050565b600060208201905081810360008301526130988161305c565b9050919050565b7f45524332303a206275726e20616d6f756e7420657863656564732062616c616e60008201527f6365000000000000000000000000000000000000000000000000000000000000602082015250565b60006130fb6022836124cd565b91506131068261309f565b604082019050919050565b6000602082019050818103600083015261312a816130ee565b9050919050565b600061313c826125d7565b9150613147836125d7565b925082820390508181111561315f5761315e612a68565b5b92915050565b7f4552433230536e617073686f743a206964206973203000000000000000000000600082015250565b600061319b6016836124cd565b91506131a682613165565b602082019050919050565b600060208201905081810360008301526131ca8161318e565b9050919050565b7f4552433230536e617073686f743a206e6f6e6578697374656e74206964000000600082015250565b6000613207601d836124cd565b9150613212826131d1565b602082019050919050565b60006020820190508181036000830152613236816131fa565b9050919050565b7f4e487b7100000000000000000000000000000000000000000000000000000000600052603260045260246000fd5b60008151905061327b816125e1565b92915050565b60006020828403121561329757613296612574565b5b60006132a58482850161326c565b91505092915050565b7f52656c65617361626c653a206e6f20455243323020746f6b656e7320746f207260008201527f656c656173650000000000000000000000000000000000000000000000000000602082015250565b600061330a6026836124cd565b9150613315826132ae565b604082019050919050565b60006020820190508181036000830152613339816132fd565b9050919050565b7f52656c65617361626c653a206e6f7420656e6f75676820455243323020746f6b60008201527f656e7320746f2072656c65617365000000000000000000000000000000000000602082015250565b600061339c602e836124cd565b91506133a782613340565b604082019050919050565b600060208201905081810360008301526133cb8161338f565b9050919050565b60006040820190506133e76000830185612822565b6133f46020830184612683565b9392505050565b60008151905061340a816125ab565b92915050565b60006020828403121561342657613425612574565b5b6000613434848285016133fb565b91505092915050565b7f52656c65617361626c653a20636f6e7472616374206973206e6f74206f776e6560008201527f72206f6620455243373231204e46540000000000000000000000000000000000602082015250565b6000613499602f836124cd565b91506134a48261343d565b604082019050919050565b600060208201905081810360008301526134c88161348c565b9050919050565b60006060820190506134e46000830186612822565b6134f16020830185612822565b6134fe6040830184612683565b949350505050565b7f52656c65617361626c653a206e6f206e6574776f726b20746f6b656e7320746f60008201527f2072656c65617365000000000000000000000000000000000000000000000000602082015250565b60006135626028836124cd565b915061356d82613506565b604082019050919050565b6000602082019050818103600083015261359181613555565b9050919050565b7f52656c65617361626c653a206e6f7420656e6f756768206e6574776f726b207460008201527f6f6b656e7320746f2072656c6561736500000000000000000000000000000000602082015250565b60006135f46030836124cd565b91506135ff82613598565b604082019050919050565b60006020820190508181036000830152613623816135e7565b9050919050565b6000819050919050565b600061364f61364a61364584612579565b61362a565b612579565b9050919050565b600061366182613634565b9050919050565b600061367382613656565b9050919050565b61368381613668565b82525050565b600060408201905061369e600083018561367a565b6136ab6020830184612683565b9392505050565b7f5061757361626c653a206e6f7420706175736564000000000000000000000000600082015250565b60006136e86014836124cd565b91506136f3826136b2565b602082019050919050565b60006020820190508181036000830152613717816136db565b9050919050565b7f5061757361626c653a2070617573656400000000000000000000000000000000600082015250565b60006137546010836124cd565b915061375f8261371e565b602082019050919050565b6000602082019050818103600083015261378381613747565b9050919050565b6137938161264d565b811461379e57600080fd5b50565b6000815190506137b08161378a565b92915050565b6000602082840312156137cc576137cb612574565b5b60006137da848285016137a1565b91505092915050565b7f52656c65617361626c653a20455243373231206f7065726174696f6e2064696460008201527f206e6f7420737563636565640000000000000000000000000000000000000000602082015250565b600061383f602c836124cd565b915061384a826137e3565b604082019050919050565b6000602082019050818103600083015261386e81613832565b9050919050565b7f416464726573733a20696e73756666696369656e742062616c616e6365000000600082015250565b60006138ab601d836124cd565b91506138b682613875565b602082019050919050565b600060208201905081810360008301526138da8161389e565b9050919050565b600081905092915050565b50565b60006138fc6000836138e1565b9150613907826138ec565b600082019050919050565b600061391d826138ef565b9150819050919050565b7f416464726573733a20756e61626c6520746f2073656e642076616c75652c207260008201527f6563697069656e74206d61792068617665207265766572746564000000000000602082015250565b6000613983603a836124cd565b915061398e82613927565b604082019050919050565b600060208201905081810360008301526139b281613976565b9050919050565b7f4e487b7100000000000000000000000000000000000000000000000000000000600052601260045260246000fd5b60006139f3826125d7565b91506139fe836125d7565b925082613a0e57613a0d6139b9565b5b828204905092915050565b7f5361666545524332303a204552433230206f7065726174696f6e20646964206e60008201527f6f74207375636365656400000000000000000000000000000000000000000000602082015250565b6000613a75602a836124cd565b9150613a8082613a19565b604082019050919050565b60006020820190508181036000830152613aa481613a68565b9050919050565b7f416464726573733a20696e73756666696369656e742062616c616e636520666f60008201527f722063616c6c0000000000000000000000000000000000000000000000000000602082015250565b6000613b076026836124cd565b9150613b1282613aab565b604082019050919050565b60006020820190508181036000830152613b3681613afa565b9050919050565b7f416464726573733a2063616c6c20746f206e6f6e2d636f6e7472616374000000600082015250565b6000613b73601d836124cd565b9150613b7e82613b3d565b602082019050919050565b60006020820190508181036000830152613ba281613b66565b9050919050565b600081519050919050565b6000613bbf82613ba9565b613bc981856138e1565b9350613bd98185602086016124de565b80840191505092915050565b6000613bf18284613bb4565b91508190509291505056fe52656c65617361626c653a206c6f772d6c6576656c2063616c6c206661696c6564a2646970667358221220f55ce6f968ab3f6ac4ef354faf0884f7d0822c456826420569b14d0340460ec164736f6c63430008110033",
  "linkReferences": {},
  "deployedLinkReferences": {}
}