{
  "_format": "hh-sol-artifact-1",
  "contractName": "TCOINX",
  "sourceName": "contracts/TCOINX.sol",
  "abi": [
    {
      "inputs": [],
      "stateMutability": "nonpayable",
      "type": "constructor"
    },
    {
      "anonymous": false,
      "inputs": [
        {
          "indexed": true,
          "internalType": "address",
          "name": "owner",
          "type": "address"
        },
        {
          "indexed": true,
          "internalType": "address",
          "name": "spender",
          "type": "address"
        },
        {
          "indexed": false,
          "internalType": "uint256",
          "name": "value",
          "type": "uint256"
        }
      ],
      "name": "Approval",
      "type": "event"
    },
    {
      "anonymous": false,
      "inputs": [
        {
          "indexed": true,
          "internalType": "address",
          "name": "previousOwner",
          "type": "address"
        },
        {
          "indexed": true,
          "internalType": "address",
          "name": "newOwner",
          "type": "address"
        }
      ],
      "name": "OwnershipTransferred",
      "type": "event"
    },
    {
      "anonymous": false,
      "inputs": [
        {
          "indexed": false,
          "internalType": "address",
          "name": "account",
          "type": "address"
        }
      ],
      "name": "Paused",
      "type": "event"
    },
    {
      "anonymous": false,
      "inputs": [
        {
          "indexed": false,
          "internalType": "uint256",
          "name": "id",
          "type": "uint256"
        }
      ],
      "name": "Snapshot",
      "type": "event"
    },
    {
      "anonymous": false,
      "inputs": [
        {
          "indexed": true,
          "internalType": "address",
          "name": "from",
          "type": "address"
        },
        {
          "indexed": true,
          "internalType": "address",
          "name": "to",
          "type": "address"
        },
        {
          "indexed": false,
          "internalType": "uint256",
          "name": "value",
          "type": "uint256"
        }
      ],
      "name": "Transfer",
      "type": "event"
    },
    {
      "anonymous": false,
      "inputs": [
        {
          "indexed": false,
          "internalType": "address",
          "name": "account",
          "type": "address"
        }
      ],
      "name": "Unpaused",
      "type": "event"
    },
    {
      "inputs": [
        {
          "internalType": "address",
          "name": "owner",
          "type": "address"
        },
        {
          "internalType": "address",
          "name": "spender",
          "type": "address"
        }
      ],
      "name": "allowance",
      "outputs": [
        {
          "internalType": "uint256",
          "name": "",
          "type": "uint256"
        }
      ],
      "stateMutability": "view",
      "type": "function"
    },
    {
      "inputs": [
        {
          "internalType": "address",
          "name": "spender",
          "type": "address"
        },
        {
          "internalType": "uint256",
          "name": "amount",
          "type": "uint256"
        }
      ],
      "name": "approve",
      "outputs": [
        {
          "internalType": "bool",
          "name": "",
          "type": "bool"
        }
      ],
      "stateMutability": "nonpayable",
      "type": "function"
    },
    {
      "inputs": [
        {
          "internalType": "address",
          "name": "account",
          "type": "address"
        }
      ],
      "name": "balanceOf",
      "outputs": [
        {
          "internalType": "uint256",
          "name": "",
          "type": "uint256"
        }
      ],
      "stateMutability": "view",
      "type": "function"
    },
    {
      "inputs": [
        {
          "internalType": "address",
          "name": "account",
          "type": "address"
        },
        {
          "internalType": "uint256",
          "name": "snapshotId",
          "type": "uint256"
        }
      ],
      "name": "balanceOfAt",
      "outputs": [
        {
          "internalType": "uint256",
          "name": "",
          "type": "uint256"
        }
      ],
      "stateMutability": "view",
      "type": "function"
    },
    {
      "inputs": [
        {
          "internalType": "uint256",
          "name": "amount",
          "type": "uint256"
        }
      ],
      "name": "burn",
      "outputs": [],
      "stateMutability": "nonpayable",
      "type": "function"
    },
    {
      "inputs": [
        {
          "internalType": "address",
          "name": "account",
          "type": "address"
        },
        {
          "internalType": "uint256",
          "name": "amount",
          "type": "uint256"
        }
      ],
      "name": "burnFrom",
      "outputs": [],
      "stateMutability": "nonpayable",
      "type": "function"
    },
    {
      "inputs": [],
      "name": "decimals",
      "outputs": [
        {
          "internalType": "uint8",
          "name": "",
          "type": "uint8"
        }
      ],
      "stateMutability": "view",
      "type": "function"
    },
    {
      "inputs": [
        {
          "internalType": "address",
          "name": "spender",
          "type": "address"
        },
        {
          "internalType": "uint256",
          "name": "subtractedValue",
          "type": "uint256"
        }
      ],
      "name": "decreaseAllowance",
      "outputs": [
        {
          "internalType": "bool",
          "name": "",
          "type": "bool"
        }
      ],
      "stateMutability": "nonpayable",
      "type": "function"
    },
    {
      "inputs": [
        {
          "internalType": "address",
          "name": "spender",
          "type": "address"
        },
        {
          "internalType": "uint256",
          "name": "addedValue",
          "type": "uint256"
        }
      ],
      "name": "increaseAllowance",
      "outputs": [
        {
          "internalType": "bool",
          "name": "",
          "type": "bool"
        }
      ],
      "stateMutability": "nonpayable",
      "type": "function"
    },
    {
      "inputs": [
        {
          "internalType": "address",
          "name": "to",
          "type": "address"
        },
        {
          "internalType": "uint256",
          "name": "amount",
          "type": "uint256"
        }
      ],
      "name": "mint",
      "outputs": [],
      "stateMutability": "nonpayable",
      "type": "function"
    },
    {
      "inputs": [],
      "name": "name",
      "outputs": [
        {
          "internalType": "string",
          "name": "",
          "type": "string"
        }
      ],
      "stateMutability": "view",
      "type": "function"
    },
    {
      "inputs": [],
      "name": "owner",
      "outputs": [
        {
          "internalType": "address",
          "name": "",
          "type": "address"
        }
      ],
      "stateMutability": "view",
      "type": "function"
    },
    {
      "inputs": [],
      "name": "pause",
      "outputs": [],
      "stateMutability": "nonpayable",
      "type": "function"
    },
    {
      "inputs": [],
      "name": "paused",
      "outputs": [
        {
          "internalType": "bool",
          "name": "",
          "type": "bool"
        }
      ],
      "stateMutability": "view",
      "type": "function"
    },
    {
      "inputs": [],
      "name": "renounceOwnership",
      "outputs": [],
      "stateMutability": "nonpayable",
      "type": "function"
    },
    {
      "inputs": [],
      "name": "snapshot",
      "outputs": [],
      "stateMutability": "nonpayable",
      "type": "function"
    },
    {
      "inputs": [],
      "name": "symbol",
      "outputs": [
        {
          "internalType": "string",
          "name": "",
          "type": "string"
        }
      ],
      "stateMutability": "view",
      "type": "function"
    },
    {
      "inputs": [],
      "name": "totalSupply",
      "outputs": [
        {
          "internalType": "uint256",
          "name": "",
          "type": "uint256"
        }
      ],
      "stateMutability": "view",
      "type": "function"
    },
    {
      "inputs": [
        {
          "internalType": "uint256",
          "name": "snapshotId",
          "type": "uint256"
        }
      ],
      "name": "totalSupplyAt",
      "outputs": [
        {
          "internalType": "uint256",
          "name": "",
          "type": "uint256"
        }
      ],
      "stateMutability": "view",
      "type": "function"
    },
    {
      "inputs": [
        {
          "internalType": "address",
          "name": "to",
          "type": "address"
        },
        {
          "internalType": "uint256",
          "name": "amount",
          "type": "uint256"
        }
      ],
      "name": "transfer",
      "outputs": [
        {
          "internalType": "bool",
          "name": "",
          "type": "bool"
        }
      ],
      "stateMutability": "nonpayable",
      "type": "function"
    },
    {
      "inputs": [
        {
          "internalType": "address",
          "name": "from",
          "type": "address"
        },
        {
          "internalType": "address",
          "name": "to",
          "type": "address"
        },
        {
          "internalType": "uint256",
          "name": "amount",
          "type": "uint256"
        }
      ],
      "name": "transferFrom",
      "outputs": [
        {
          "internalType": "bool",
          "name": "",
          "type": "bool"
        }
      ],
      "stateMutability": "nonpayable",
      "type": "function"
    },
    {
      "inputs": [
        {
          "internalType": "address",
          "name": "newOwner",
          "type": "address"
        }
      ],
      "name": "transferOwnership",
      "outputs": [],
      "stateMutability": "nonpayable",
      "type": "function"
    },
    {
      "inputs": [],
      "name": "unpause",
      "outputs": [],
      "stateMutability": "nonpayable",
      "type": "function"
    }
  ],
  "bytecode": "0x60806040523480156200001157600080fd5b506040518060400160405280600681526020017f54434f494e5800000000000000000000000000000000000000000000000000008152506040518060400160405280600381526020017f544358000000000000000000000000000000000000000000000000000000000081525081600390805190602001906200009692919062000728565b508060049080519060200190620000af92919062000728565b505050620000d2620000c66200013160201b60201c565b6200013960201b60201c565b6000600960146101000a81548160ff0219169083151502179055506200012b3362000102620001ff60201b60201c565b600a62000110919062000961565b6103e86200011f919062000a9e565b6200020860201b60201c565b62000c44565b600033905090565b6000600960009054906101000a900473ffffffffffffffffffffffffffffffffffffffff16905081600960006101000a81548173ffffffffffffffffffffffffffffffffffffffff021916908373ffffffffffffffffffffffffffffffffffffffff1602179055508173ffffffffffffffffffffffffffffffffffffffff168173ffffffffffffffffffffffffffffffffffffffff167f8be0079c531659141344cd1fd0a4f28419497f9722a3daafe3b4186f6b6457e060405160405180910390a35050565b60006012905090565b600073ffffffffffffffffffffffffffffffffffffffff168273ffffffffffffffffffffffffffffffffffffffff1614156200027b576040517f08c379a0000000000000000000000000000000000000000000000000000000008152600401620002729062000859565b60405180910390fd5b6200028f600083836200038160201b60201c565b8060026000828254620002a39190620008a9565b92505081905550806000808473ffffffffffffffffffffffffffffffffffffffff1673ffffffffffffffffffffffffffffffffffffffff1681526020019081526020016000206000828254620002fa9190620008a9565b925050819055508173ffffffffffffffffffffffffffffffffffffffff16600073ffffffffffffffffffffffffffffffffffffffff167fddf252ad1be2c89b69c2b068fc378daa952ba7f163c4a11628f55a4df523b3ef836040516200036191906200087b565b60405180910390a36200037d60008383620003ae60201b60201c565b5050565b62000391620003b360201b60201c565b620003a98383836200040860201b620009721760201c565b505050565b505050565b620003c36200050360201b60201c565b1562000406576040517f08c379a0000000000000000000000000000000000000000000000000000000008152600401620003fd9062000837565b60405180910390fd5b565b620004208383836200051a60201b62000a2c1760201c565b600073ffffffffffffffffffffffffffffffffffffffff168373ffffffffffffffffffffffffffffffffffffffff1614156200047d5762000467826200051f60201b60201c565b620004776200058260201b60201c565b620004fe565b600073ffffffffffffffffffffffffffffffffffffffff168273ffffffffffffffffffffffffffffffffffffffff161415620004da57620004c4836200051f60201b60201c565b620004d46200058260201b60201c565b620004fd565b620004eb836200051f60201b60201c565b620004fc826200051f60201b60201c565b5b5b505050565b6000600960149054906101000a900460ff16905090565b505050565b6200057f600560008373ffffffffffffffffffffffffffffffffffffffff1673ffffffffffffffffffffffffffffffffffffffff1681526020019081526020016000206200057383620005a660201b60201c565b620005ee60201b60201c565b50565b620005a46006620005986200067a60201b60201c565b620005ee60201b60201c565b565b60008060008373ffffffffffffffffffffffffffffffffffffffff1673ffffffffffffffffffffffffffffffffffffffff168152602001908152602001600020549050919050565b6000620006006200068460201b60201c565b9050806200061784600001620006a260201b60201c565b1015620006755782600001819080600181540180825580915050600190039060005260206000200160009091909190915055826001018290806001815401808255809150506001900390600052602060002001600090919091909150555b505050565b6000600254905090565b60006200069d60086200071a60201b62000a311760201c565b905090565b60008082805490501415620006bb576000905062000715565b8160018380549050620006cf919062000aff565b8154811062000707577f4e487b7100000000000000000000000000000000000000000000000000000000600052603260045260246000fd5b906000526020600020015490505b919050565b600081600001549050919050565b828054620007369062000b51565b90600052602060002090601f0160209004810192826200075a5760008555620007a6565b82601f106200077557805160ff1916838001178555620007a6565b82800160010185558215620007a6579182015b82811115620007a557825182559160200191906001019062000788565b5b509050620007b59190620007b9565b5090565b5b80821115620007d4576000816000905550600101620007ba565b5090565b6000620007e760108362000898565b9150620007f48262000bf2565b602082019050919050565b60006200080e601f8362000898565b91506200081b8262000c1b565b602082019050919050565b620008318162000b3a565b82525050565b600060208201905081810360008301526200085281620007d8565b9050919050565b600060208201905081810360008301526200087481620007ff565b9050919050565b600060208201905062000892600083018462000826565b92915050565b600082825260208201905092915050565b6000620008b68262000b3a565b9150620008c38362000b3a565b9250827fffffffffffffffffffffffffffffffffffffffffffffffffffffffffffffffff03821115620008fb57620008fa62000b87565b5b828201905092915050565b6000808291508390505b6001851115620009585780860481111562000930576200092f62000b87565b5b6001851615620009405780820291505b8081029050620009508562000be5565b945062000910565b94509492505050565b60006200096e8262000b3a565b91506200097b8362000b44565b9250620009aa7fffffffffffffffffffffffffffffffffffffffffffffffffffffffffffffffff8484620009b2565b905092915050565b600082620009c4576001905062000a97565b81620009d4576000905062000a97565b8160018114620009ed5760028114620009f85762000a2e565b600191505062000a97565b60ff84111562000a0d5762000a0c62000b87565b5b8360020a91508482111562000a275762000a2662000b87565b5b5062000a97565b5060208310610133831016604e8410600b841016171562000a685782820a90508381111562000a625762000a6162000b87565b5b62000a97565b62000a77848484600162000906565b9250905081840481111562000a915762000a9062000b87565b5b81810290505b9392505050565b600062000aab8262000b3a565b915062000ab88362000b3a565b9250817fffffffffffffffffffffffffffffffffffffffffffffffffffffffffffffffff048311821515161562000af45762000af362000b87565b5b828202905092915050565b600062000b0c8262000b3a565b915062000b198362000b3a565b92508282101562000b2f5762000b2e62000b87565b5b828203905092915050565b6000819050919050565b600060ff82169050919050565b6000600282049050600182168062000b6a57607f821691505b6020821081141562000b815762000b8062000bb6565b5b50919050565b7f4e487b7100000000000000000000000000000000000000000000000000000000600052601160045260246000fd5b7f4e487b7100000000000000000000000000000000000000000000000000000000600052602260045260246000fd5b60008160011c9050919050565b7f5061757361626c653a2070617573656400000000000000000000000000000000600082015250565b7f45524332303a206d696e7420746f20746865207a65726f206164647265737300600082015250565b6126398062000c546000396000f3fe608060405234801561001057600080fd5b506004361061014d5760003560e01c806370a08231116100c35780639711715a1161007c5780639711715a14610368578063981b24d014610372578063a457c2d7146103a2578063a9059cbb146103d2578063dd62ed3e14610402578063f2fde38b146104325761014d565b806370a08231146102cc578063715018a6146102fc57806379cc6790146103065780638456cb59146103225780638da5cb5b1461032c57806395d89b411461034a5761014d565b80633950935111610115578063395093511461020c5780633f4ba83a1461023c57806340c10f191461024657806342966c68146102625780634ee2cd7e1461027e5780635c975abb146102ae5761014d565b806306fdde0314610152578063095ea7b31461017057806318160ddd146101a057806323b872dd146101be578063313ce567146101ee575b600080fd5b61015a61044e565b6040516101679190611d68565b60405180910390f35b61018a60048036038101906101859190611a28565b6104e0565b6040516101979190611d4d565b60405180910390f35b6101a8610503565b6040516101b59190611f8a565b60405180910390f35b6101d860048036038101906101d391906119d9565b61050d565b6040516101e59190611d4d565b60405180910390f35b6101f661053c565b6040516102039190611fa5565b60405180910390f35b61022660048036038101906102219190611a28565b610545565b6040516102339190611d4d565b60405180910390f35b61024461057c565b005b610260600480360381019061025b9190611a28565b61058e565b005b61027c60048036038101906102779190611a64565b6105a4565b005b61029860048036038101906102939190611a28565b6105b8565b6040516102a59190611f8a565b60405180910390f35b6102b6610628565b6040516102c39190611d4d565b60405180910390f35b6102e660048036038101906102e19190611974565b61063f565b6040516102f39190611f8a565b60405180910390f35b610304610687565b005b610320600480360381019061031b9190611a28565b61069b565b005b61032a6106bb565b005b6103346106cd565b6040516103419190611d32565b60405180910390f35b6103526106f7565b60405161035f9190611d68565b60405180910390f35b610370610789565b005b61038c60048036038101906103879190611a64565b61079c565b6040516103999190611f8a565b60405180910390f35b6103bc60048036038101906103b79190611a28565b6107cd565b6040516103c99190611d4d565b60405180910390f35b6103ec60048036038101906103e79190611a28565b610844565b6040516103f99190611d4d565b60405180910390f35b61041c6004803603810190610417919061199d565b610867565b6040516104299190611f8a565b60405180910390f35b61044c60048036038101906104479190611974565b6108ee565b005b60606003805461045d9061211f565b80601f01602080910402602001604051908101604052809291908181526020018280546104899061211f565b80156104d65780601f106104ab576101008083540402835291602001916104d6565b820191906000526020600020905b8154815290600101906020018083116104b957829003601f168201915b5050505050905090565b6000806104eb610a3f565b90506104f8818585610a47565b600191505092915050565b6000600254905090565b600080610518610a3f565b9050610525858285610c12565b610530858585610c9e565b60019150509392505050565b60006012905090565b600080610550610a3f565b90506105718185856105628589610867565b61056c9190611fdc565b610a47565b600191505092915050565b610584610f1f565b61058c610f9d565b565b610596610f1f565b6105a08282611000565b5050565b6105b56105af610a3f565b82611160565b50565b600080600061060584600560008873ffffffffffffffffffffffffffffffffffffffff1673ffffffffffffffffffffffffffffffffffffffff168152602001908152602001600020611337565b915091508161061c576106178561063f565b61061e565b805b9250505092915050565b6000600960149054906101000a900460ff16905090565b60008060008373ffffffffffffffffffffffffffffffffffffffff1673ffffffffffffffffffffffffffffffffffffffff168152602001908152602001600020549050919050565b61068f610f1f565b6106996000611453565b565b6106ad826106a7610a3f565b83610c12565b6106b78282611160565b5050565b6106c3610f1f565b6106cb611519565b565b6000600960009054906101000a900473ffffffffffffffffffffffffffffffffffffffff16905090565b6060600480546107069061211f565b80601f01602080910402602001604051908101604052809291908181526020018280546107329061211f565b801561077f5780601f106107545761010080835404028352916020019161077f565b820191906000526020600020905b81548152906001019060200180831161076257829003601f168201915b5050505050905090565b610791610f1f565b61079961157c565b50565b60008060006107ac846006611337565b91509150816107c2576107bd610503565b6107c4565b805b92505050919050565b6000806107d8610a3f565b905060006107e68286610867565b90508381101561082b576040517f08c379a000000000000000000000000000000000000000000000000000000000815260040161082290611f4a565b60405180910390fd5b6108388286868403610a47565b60019250505092915050565b60008061084f610a3f565b905061085c818585610c9e565b600191505092915050565b6000600160008473ffffffffffffffffffffffffffffffffffffffff1673ffffffffffffffffffffffffffffffffffffffff16815260200190815260200160002060008373ffffffffffffffffffffffffffffffffffffffff1673ffffffffffffffffffffffffffffffffffffffff16815260200190815260200160002054905092915050565b6108f6610f1f565b600073ffffffffffffffffffffffffffffffffffffffff168173ffffffffffffffffffffffffffffffffffffffff161415610966576040517f08c379a000000000000000000000000000000000000000000000000000000000815260040161095d90611e0a565b60405180910390fd5b61096f81611453565b50565b61097d838383610a2c565b600073ffffffffffffffffffffffffffffffffffffffff168373ffffffffffffffffffffffffffffffffffffffff1614156109c8576109bb826115d2565b6109c3611625565b610a27565b600073ffffffffffffffffffffffffffffffffffffffff168273ffffffffffffffffffffffffffffffffffffffff161415610a1357610a06836115d2565b610a0e611625565b610a26565b610a1c836115d2565b610a25826115d2565b5b5b505050565b505050565b600081600001549050919050565b600033905090565b600073ffffffffffffffffffffffffffffffffffffffff168373ffffffffffffffffffffffffffffffffffffffff161415610ab7576040517f08c379a0000000000000000000000000000000000000000000000000000000008152600401610aae90611f0a565b60405180910390fd5b600073ffffffffffffffffffffffffffffffffffffffff168273ffffffffffffffffffffffffffffffffffffffff161415610b27576040517f08c379a0000000000000000000000000000000000000000000000000000000008152600401610b1e90611e2a565b60405180910390fd5b80600160008573ffffffffffffffffffffffffffffffffffffffff1673ffffffffffffffffffffffffffffffffffffffff16815260200190815260200160002060008473ffffffffffffffffffffffffffffffffffffffff1673ffffffffffffffffffffffffffffffffffffffff168152602001908152602001600020819055508173ffffffffffffffffffffffffffffffffffffffff168373ffffffffffffffffffffffffffffffffffffffff167f8c5be1e5ebec7d5bd14f71427d1e84f3dd0314c0f7b2291e5b200ac8c7c3b92583604051610c059190611f8a565b60405180910390a3505050565b6000610c1e8484610867565b90507fffffffffffffffffffffffffffffffffffffffffffffffffffffffffffffffff8114610c985781811015610c8a576040517f08c379a0000000000000000000000000000000000000000000000000000000008152600401610c8190611e4a565b60405180910390fd5b610c978484848403610a47565b5b50505050565b600073ffffffffffffffffffffffffffffffffffffffff168373ffffffffffffffffffffffffffffffffffffffff161415610d0e576040517f08c379a0000000000000000000000000000000000000000000000000000000008152600401610d0590611eea565b60405180910390fd5b600073ffffffffffffffffffffffffffffffffffffffff168273ffffffffffffffffffffffffffffffffffffffff161415610d7e576040517f08c379a0000000000000000000000000000000000000000000000000000000008152600401610d7590611daa565b60405180910390fd5b610d89838383611639565b60008060008573ffffffffffffffffffffffffffffffffffffffff1673ffffffffffffffffffffffffffffffffffffffff16815260200190815260200160002054905081811015610e0f576040517f08c379a0000000000000000000000000000000000000000000000000000000008152600401610e0690611e6a565b60405180910390fd5b8181036000808673ffffffffffffffffffffffffffffffffffffffff1673ffffffffffffffffffffffffffffffffffffffff16815260200190815260200160002081905550816000808573ffffffffffffffffffffffffffffffffffffffff1673ffffffffffffffffffffffffffffffffffffffff1681526020019081526020016000206000828254610ea29190611fdc565b925050819055508273ffffffffffffffffffffffffffffffffffffffff168473ffffffffffffffffffffffffffffffffffffffff167fddf252ad1be2c89b69c2b068fc378daa952ba7f163c4a11628f55a4df523b3ef84604051610f069190611f8a565b60405180910390a3610f19848484611651565b50505050565b610f27610a3f565b73ffffffffffffffffffffffffffffffffffffffff16610f456106cd565b73ffffffffffffffffffffffffffffffffffffffff1614610f9b576040517f08c379a0000000000000000000000000000000000000000000000000000000008152600401610f9290611eaa565b60405180910390fd5b565b610fa5611656565b6000600960146101000a81548160ff0219169083151502179055507f5db9ee0a495bf2e6ff9c91a7834c1ba4fdd244a5e8aa4e537bd38aeae4b073aa610fe9610a3f565b604051610ff69190611d32565b60405180910390a1565b600073ffffffffffffffffffffffffffffffffffffffff168273ffffffffffffffffffffffffffffffffffffffff161415611070576040517f08c379a000000000000000000000000000000000000000000000000000000000815260040161106790611f6a565b60405180910390fd5b61107c60008383611639565b806002600082825461108e9190611fdc565b92505081905550806000808473ffffffffffffffffffffffffffffffffffffffff1673ffffffffffffffffffffffffffffffffffffffff16815260200190815260200160002060008282546110e39190611fdc565b925050819055508173ffffffffffffffffffffffffffffffffffffffff16600073ffffffffffffffffffffffffffffffffffffffff167fddf252ad1be2c89b69c2b068fc378daa952ba7f163c4a11628f55a4df523b3ef836040516111489190611f8a565b60405180910390a361115c60008383611651565b5050565b600073ffffffffffffffffffffffffffffffffffffffff168273ffffffffffffffffffffffffffffffffffffffff1614156111d0576040517f08c379a00000000000000000000000000000000000000000000000000000000081526004016111c790611eca565b60405180910390fd5b6111dc82600083611639565b60008060008473ffffffffffffffffffffffffffffffffffffffff1673ffffffffffffffffffffffffffffffffffffffff16815260200190815260200160002054905081811015611262576040517f08c379a000000000000000000000000000000000000000000000000000000000815260040161125990611dea565b60405180910390fd5b8181036000808573ffffffffffffffffffffffffffffffffffffffff1673ffffffffffffffffffffffffffffffffffffffff1681526020019081526020016000208190555081600260008282546112b99190612063565b92505081905550600073ffffffffffffffffffffffffffffffffffffffff168373ffffffffffffffffffffffffffffffffffffffff167fddf252ad1be2c89b69c2b068fc378daa952ba7f163c4a11628f55a4df523b3ef8460405161131e9190611f8a565b60405180910390a361133283600084611651565b505050565b6000806000841161137d576040517f08c379a000000000000000000000000000000000000000000000000000000000815260040161137490611f2a565b60405180910390fd5b61138561169f565b8411156113c7576040517f08c379a00000000000000000000000000000000000000000000000000000000081526004016113be90611d8a565b60405180910390fd5b60006113df85856000016116b090919063ffffffff16565b905083600001805490508114156113fd57600080925092505061144c565b600184600101828154811061143b577f4e487b7100000000000000000000000000000000000000000000000000000000600052603260045260246000fd5b906000526020600020015492509250505b9250929050565b6000600960009054906101000a900473ffffffffffffffffffffffffffffffffffffffff16905081600960006101000a81548173ffffffffffffffffffffffffffffffffffffffff021916908373ffffffffffffffffffffffffffffffffffffffff1602179055508173ffffffffffffffffffffffffffffffffffffffff168173ffffffffffffffffffffffffffffffffffffffff167f8be0079c531659141344cd1fd0a4f28419497f9722a3daafe3b4186f6b6457e060405160405180910390a35050565b6115216117d6565b6001600960146101000a81548160ff0219169083151502179055507f62e78cea01bee320cd4e420270b5ea74000d11b0c9f74754ebdbfc544b05a258611565610a3f565b6040516115729190611d32565b60405180910390a1565b60006115886008611820565b600061159261169f565b90507f8030e83b04d87bef53480e26263266d6ca66863aa8506aca6f2559d18aa1cb67816040516115c39190611f8a565b60405180910390a18091505090565b611622600560008373ffffffffffffffffffffffffffffffffffffffff1673ffffffffffffffffffffffffffffffffffffffff16815260200190815260200160002061161d8361063f565b611836565b50565b6116376006611632610503565b611836565b565b6116416117d6565b61164c838383610972565b505050565b505050565b61165e610628565b61169d576040517f08c379a000000000000000000000000000000000000000000000000000000000815260040161169490611dca565b60405180910390fd5b565b60006116ab6008610a31565b905090565b600080838054905014156116c757600090506117d0565b600080848054905090505b808210156117515760006116e683836118b1565b905084868281548110611722577f4e487b7100000000000000000000000000000000000000000000000000000000600052603260045260246000fd5b9060005260206000200154111561173b5780915061174b565b6001816117489190611fdc565b92505b506116d2565b6000821180156117af5750838560018461176b9190612063565b815481106117a2577f4e487b7100000000000000000000000000000000000000000000000000000000600052603260045260246000fd5b9060005260206000200154145b156117ca576001826117c19190612063565b925050506117d0565b81925050505b92915050565b6117de610628565b1561181e576040517f08c379a000000000000000000000000000000000000000000000000000000000815260040161181590611e8a565b60405180910390fd5b565b6001816000016000828254019250508190555050565b600061184061169f565b90508061184f846000016118d7565b10156118ac5782600001819080600181540180825580915050600190039060005260206000200160009091909190915055826001018290806001815401808255809150506001900390600052602060002001600090919091909150555b505050565b600060028284186118c29190612032565b8284166118cf9190611fdc565b905092915050565b600080828054905014156118ee5760009050611945565b81600183805490506119009190612063565b81548110611937577f4e487b7100000000000000000000000000000000000000000000000000000000600052603260045260246000fd5b906000526020600020015490505b919050565b600081359050611959816125d5565b92915050565b60008135905061196e816125ec565b92915050565b60006020828403121561198657600080fd5b60006119948482850161194a565b91505092915050565b600080604083850312156119b057600080fd5b60006119be8582860161194a565b92505060206119cf8582860161194a565b9150509250929050565b6000806000606084860312156119ee57600080fd5b60006119fc8682870161194a565b9350506020611a0d8682870161194a565b9250506040611a1e8682870161195f565b9150509250925092565b60008060408385031215611a3b57600080fd5b6000611a498582860161194a565b9250506020611a5a8582860161195f565b9150509250929050565b600060208284031215611a7657600080fd5b6000611a848482850161195f565b91505092915050565b611a9681612097565b82525050565b611aa5816120a9565b82525050565b6000611ab682611fc0565b611ac08185611fcb565b9350611ad08185602086016120ec565b611ad9816121de565b840191505092915050565b6000611af1601d83611fcb565b9150611afc826121ef565b602082019050919050565b6000611b14602383611fcb565b9150611b1f82612218565b604082019050919050565b6000611b37601483611fcb565b9150611b4282612267565b602082019050919050565b6000611b5a602283611fcb565b9150611b6582612290565b604082019050919050565b6000611b7d602683611fcb565b9150611b88826122df565b604082019050919050565b6000611ba0602283611fcb565b9150611bab8261232e565b604082019050919050565b6000611bc3601d83611fcb565b9150611bce8261237d565b602082019050919050565b6000611be6602683611fcb565b9150611bf1826123a6565b604082019050919050565b6000611c09601083611fcb565b9150611c14826123f5565b602082019050919050565b6000611c2c602083611fcb565b9150611c378261241e565b602082019050919050565b6000611c4f602183611fcb565b9150611c5a82612447565b604082019050919050565b6000611c72602583611fcb565b9150611c7d82612496565b604082019050919050565b6000611c95602483611fcb565b9150611ca0826124e5565b604082019050919050565b6000611cb8601683611fcb565b9150611cc382612534565b602082019050919050565b6000611cdb602583611fcb565b9150611ce68261255d565b604082019050919050565b6000611cfe601f83611fcb565b9150611d09826125ac565b602082019050919050565b611d1d816120d5565b82525050565b611d2c816120df565b82525050565b6000602082019050611d476000830184611a8d565b92915050565b6000602082019050611d626000830184611a9c565b92915050565b60006020820190508181036000830152611d828184611aab565b905092915050565b60006020820190508181036000830152611da381611ae4565b9050919050565b60006020820190508181036000830152611dc381611b07565b9050919050565b60006020820190508181036000830152611de381611b2a565b9050919050565b60006020820190508181036000830152611e0381611b4d565b9050919050565b60006020820190508181036000830152611e2381611b70565b9050919050565b60006020820190508181036000830152611e4381611b93565b9050919050565b60006020820190508181036000830152611e6381611bb6565b9050919050565b60006020820190508181036000830152611e8381611bd9565b9050919050565b60006020820190508181036000830152611ea381611bfc565b9050919050565b60006020820190508181036000830152611ec381611c1f565b9050919050565b60006020820190508181036000830152611ee381611c42565b9050919050565b60006020820190508181036000830152611f0381611c65565b9050919050565b60006020820190508181036000830152611f2381611c88565b9050919050565b60006020820190508181036000830152611f4381611cab565b9050919050565b60006020820190508181036000830152611f6381611cce565b9050919050565b60006020820190508181036000830152611f8381611cf1565b9050919050565b6000602082019050611f9f6000830184611d14565b92915050565b6000602082019050611fba6000830184611d23565b92915050565b600081519050919050565b600082825260208201905092915050565b6000611fe7826120d5565b9150611ff2836120d5565b9250827fffffffffffffffffffffffffffffffffffffffffffffffffffffffffffffffff0382111561202757612026612151565b5b828201905092915050565b600061203d826120d5565b9150612048836120d5565b92508261205857612057612180565b5b828204905092915050565b600061206e826120d5565b9150612079836120d5565b92508282101561208c5761208b612151565b5b828203905092915050565b60006120a2826120b5565b9050919050565b60008115159050919050565b600073ffffffffffffffffffffffffffffffffffffffff82169050919050565b6000819050919050565b600060ff82169050919050565b60005b8381101561210a5780820151818401526020810190506120ef565b83811115612119576000848401525b50505050565b6000600282049050600182168061213757607f821691505b6020821081141561214b5761214a6121af565b5b50919050565b7f4e487b7100000000000000000000000000000000000000000000000000000000600052601160045260246000fd5b7f4e487b7100000000000000000000000000000000000000000000000000000000600052601260045260246000fd5b7f4e487b7100000000000000000000000000000000000000000000000000000000600052602260045260246000fd5b6000601f19601f8301169050919050565b7f4552433230536e617073686f743a206e6f6e6578697374656e74206964000000600082015250565b7f45524332303a207472616e7366657220746f20746865207a65726f206164647260008201527f6573730000000000000000000000000000000000000000000000000000000000602082015250565b7f5061757361626c653a206e6f7420706175736564000000000000000000000000600082015250565b7f45524332303a206275726e20616d6f756e7420657863656564732062616c616e60008201527f6365000000000000000000000000000000000000000000000000000000000000602082015250565b7f4f776e61626c653a206e6577206f776e657220697320746865207a65726f206160008201527f6464726573730000000000000000000000000000000000000000000000000000602082015250565b7f45524332303a20617070726f766520746f20746865207a65726f20616464726560008201527f7373000000000000000000000000000000000000000000000000000000000000602082015250565b7f45524332303a20696e73756666696369656e7420616c6c6f77616e6365000000600082015250565b7f45524332303a207472616e7366657220616d6f756e742065786365656473206260008201527f616c616e63650000000000000000000000000000000000000000000000000000602082015250565b7f5061757361626c653a2070617573656400000000000000000000000000000000600082015250565b7f4f776e61626c653a2063616c6c6572206973206e6f7420746865206f776e6572600082015250565b7f45524332303a206275726e2066726f6d20746865207a65726f2061646472657360008201527f7300000000000000000000000000000000000000000000000000000000000000602082015250565b7f45524332303a207472616e736665722066726f6d20746865207a65726f20616460008201527f6472657373000000000000000000000000000000000000000000000000000000602082015250565b7f45524332303a20617070726f76652066726f6d20746865207a65726f2061646460008201527f7265737300000000000000000000000000000000000000000000000000000000602082015250565b7f4552433230536e617073686f743a206964206973203000000000000000000000600082015250565b7f45524332303a2064656372656173656420616c6c6f77616e63652062656c6f7760008201527f207a65726f000000000000000000000000000000000000000000000000000000602082015250565b7f45524332303a206d696e7420746f20746865207a65726f206164647265737300600082015250565b6125de81612097565b81146125e957600080fd5b50565b6125f5816120d5565b811461260057600080fd5b5056fea2646970667358221220c180e56033bea60fe1c37823d1df29549375f79e69ce95a9264e5be459ce0f9764736f6c63430008040033",
  "linkReferences": {},
  "deployedLinkReferences": {}
}