{
  "_format": "hh-sol-artifact-1",
  "contractName": "UsingTestERC20",
  "sourceName": "contracts/TestSupportInterface.sol",
  "abi": [
    {
      "inputs": [
        {
          "internalType": "address",
          "name": "testAddress",
          "type": "address"
        }
      ],
      "name": "addToken",
      "outputs": [],
      "stateMutability": "view",
      "type": "function"
    }
  ],
  "bytecode": "0x608060405234801561001057600080fd5b506103a1806100206000396000f3fe608060405234801561001057600080fd5b506004361061002b5760003560e01c8063d48bfca714610030575b600080fd5b61004a6004803603810190610045919061026b565b61004c565b005b6100957f36372b07000000000000000000000000000000000000000000000000000000008273ffffffffffffffffffffffffffffffffffffffff166100d790919063ffffffff16565b6100d4576040517f08c379a00000000000000000000000000000000000000000000000000000000081526004016100cb906102f5565b60405180910390fd5b50565b60006100e2836100fc565b80156100f457506100f38383610149565b5b905092915050565b6000610128827f01ffc9a700000000000000000000000000000000000000000000000000000000610149565b801561014257506101408263ffffffff60e01b610149565b155b9050919050565b6000806301ffc9a760e01b836040516024016101659190610350565b604051602081830303815290604052907bffffffffffffffffffffffffffffffffffffffffffffffffffffffff19166020820180517bffffffffffffffffffffffffffffffffffffffffffffffffffffffff838183161783525050505090506000806000602060008551602087018a617530fa92503d915060005190508280156101f0575060208210155b80156101fc5750600081115b94505050505092915050565b600080fd5b600073ffffffffffffffffffffffffffffffffffffffff82169050919050565b60006102388261020d565b9050919050565b6102488161022d565b811461025357600080fd5b50565b6000813590506102658161023f565b92915050565b60006020828403121561028157610280610208565b5b600061028f84828501610256565b91505092915050565b600082825260208201905092915050565b7f41646472657373206973206e6f7420737570706f727465640000000000000000600082015250565b60006102df601883610298565b91506102ea826102a9565b602082019050919050565b6000602082019050818103600083015261030e816102d2565b9050919050565b60007fffffffff0000000000000000000000000000000000000000000000000000000082169050919050565b61034a81610315565b82525050565b60006020820190506103656000830184610341565b9291505056fea2646970667358221220bf8ca774e866e3d90ce4e5de7f112be862679580c46972c44223324096cab92464736f6c63430008110033",
  "linkReferences": {},
  "deployedLinkReferences": {}
}